:100000000C9462000C948A000C948A000C94760282
:100010000C9476020C9476020C948A000C948A005C
:100020000C948A000C948A000C948A000C948A0028
:100030000C948A000C948A000C948A000C948A0018
:100040000C942C020C948A000C948A000C948A0064
:100050000C948A000C948A000C948A000C948A00F8
:100060000C9480020C948A000000000023002600FB
:10007000290000000000240027002A0000000000E2
:10008000250028002B0004040404040404040202D4
:100090000202020203030303030301020408102007
:1000A0004080010204081020010204081020000012
:1000B0000008000201000003040700000000000027
:1000C0000000D30411241FBECFEFD8E0DEBFCDBFA8
:1000D00011E0A0E0B1E0E2EEF9E002C005900D927F
:1000E000A431B107D9F721E0A4E1B1E001C01D922C
:1000F000A43AB207E1F710E0C2E6D0E004C02197CD
:10010000FE010E94E404C136D107C9F70E94AE0384
:100110000C94EF040C940000833081F028F48130BB
:1001200099F08230A1F008958730A9F08830B9F0B5
:100130008430D1F4809180008F7D03C08091800055
:100140008F7780938000089584B58F7702C084B53F
:100150008F7D84BD08958091B0008F7703C080911A
:10016000B0008F7D8093B00008951F93CF93DF93ED
:10017000282F30E0F901E255FF4F8491F901E6564E
:10018000FF4FD491F901EA57FF4FC491CC23C9F036
:10019000162F81110E948C00EC2FF0E0EE0FFF1F54
:1001A000E458FF4FA591B4918FB7F894111105C091
:1001B0009C91ED2FE095E92302C0EC91ED2BEC939F
:1001C0008FBFDF91CF911F910895CF93DF9390E080
:1001D000FC01E656FF4F2491FC01EA57FF4F849142
:1001E000882361F190E0880F991FFC01EE58FF4FC2
:1001F000C591D491FC01E458FF4FA591B4916111D0
:1002000009C09FB7F8948881209582238883EC9158
:100210002E230BC0623061F49FB7F8943881822F8F
:10022000809583238883EC912E2B2C939FBF06C04F
:100230008FB7F894E8812E2B28838FBFDF91CF9161
:1002400008951F93CF93DF93182FEB0161E00E9475
:10025000E500209711F460E004C0CF3FD10539F4E8
:1002600061E0812FDF91CF911F910C94B500E12FB8
:10027000F0E0E255FF4FE491E330F9F048F4E1306B
:10028000B9F0E230A1F584B5806284BDC8BD34C048
:10029000E730E9F0E83019F1E43049F58091800069
:1002A000806280938000D0938B00C0938A0024C02A
:1002B00084B5806884BDC7BD1FC080918000806800
:1002C00080938000D0938900C093880015C08091EE
:1002D000B00080688093B000C093B3000DC08091DF
:1002E000B00080628093B000C093B40005C0C038F5
:1002F000D1050CF0B5CFAFCFDF91CF911F9108950D
:10030000CF92DF92EF92FF920F931F93CF93DF93E1
:100310006C017A018B01C0E0D0E0CE15DF0589F0D9
:10032000D8016D918D01D601ED91FC910190F08184
:10033000E02DC6010995892B11F47E0102C021969A
:10034000ECCFC701DF91CF911F910F91FF90EF90FC
:10035000DF90CF90089508958FEF9FEF08958FEF6E
:100360009FEF08958091820190E091958195910988
:100370000895089580E090E0089585ED8093BC0095
:100380008091BC0084FDFCCF10925C0108954091E7
:100390003601262F30E0240F311D21323105DCF4E7
:1003A00020915C012430C9F4FC0180E090E08617C4
:1003B00058F4309136012191DC01AC5EBE4FA30FA1
:1003C000B11D2C930196F3CF80913601680F609395
:1003D000360180E0089581E0089582E00895CF938A
:1003E000DF9300D0CDB7DEB7CB01642F49835A83AA
:1003F0000E94C7014981842F5A81952F0F900F9039
:10040000DF91CF910895CF93DF931F92CDB7DEB7E1
:10041000698361E0CE0101960E94C70181E090E00E
:100420000F90DF91CF9108950F931F93CF93DF9398
:100430008B01EA01BC0187E00E942101B80186E03E
:100440000E942101BE0185E0DF91CF911F910F91A4
:100450000C9421010E94EA041F920F920FB60F9292
:1004600011242F933F938F939F93AF93BF938091CA
:10047000A0019091A101A091A201B091A30130919E
:100480009F0123E0230F2D3720F40196A11DB11DFC
:1004900005C026E8230F0296A11DB11D20939F01E0
:1004A0008093A0019093A101A093A201B093A30116
:1004B00080919B0190919C01A0919D01B0919E0122
:1004C0000196A11DB11D80939B0190939C01A09367
:1004D0009D01B0939E01BF91AF919F918F913F91EC
:1004E0002F910F900FBE0F901F9018951F920F9293
:1004F0000FB60F9211240F900FBE0F901F901895FA
:100500001F920F920FB60F9211242F933F934F9388
:100510005F936F937F938F939F93AF93BF93EF936B
:10052000FF938091B900887F803609F49CC068F5FC
:10053000883209F45BC090F4803109F454C038F477
:10054000882309F4F6C0883009F44DC0F6C088311C
:1005500009F44CC0803209F45DC0EFC0803409F466
:1005600068C048F4803309F455C0883309F0E5C009
:1005700080935B01D8C0803509F44FC0883509F4F9
:100580005DC0883409F0D9C0D6C0883909F4C7C025
:10059000A8F4883709F467C038F4883609F463C0D2
:1005A000803709F460C0C9C0883809F4B8C0803900
:1005B00009F45FC0803809F0C0C05BC0803B09F41B
:1005C00086C038F4803A09F466C0883A09F47FC0DE
:1005D000B4C0803C09F4A7C0883C09F4A4C0883B9F
:1005E00009F48AC0AAC08091810110C09091800155
:1005F00080917F01981770F5E091800181E08E0F66
:1006000080938001F0E0E15AFE4F80818093BB002F
:1006100085EC86C080935B018EC0E091800181E013
:100620008E0F809380018091BB00F0E0E15AFE4F75
:1006300080839091800180917F016EC0E091800164
:1006400081E08E0F809380018091BB00F0E0E15A41
:10065000FE4F808380915E0181116DC081E08093A7
:100660005D0184EA61C083E080935C0110925A01CD
:10067000CFCF80915A01803208F051C0E0915A01E9
:1006800081E08E0F80935A018091BB00F0E0E65C20
:10069000FE4F8083BDCF85EC8093BC0010925C013F
:1006A00080915A01803230F4E0915A01F0E0E65C2A
:1006B000FE4F108260915A0170E0E0913801F09194
:1006C00039018AE391E0099510925A0136C084E01D
:1006D00080935C011092370110923601E091340151
:1006E000F0913501099580913601811105C081E0B5
:1006F0008093360110921401E091370181E08E0F52
:1007000080933701F0E0EC5EFE4F80818093BB0068
:100710009091370180913601981708F479CF85E8D8
:100720008093BC000AC085EC8093BC0010925C01F1
:1007300004C010925B010E94BD01FF91EF91BF9137
:10074000AF919F918F917F916F915F914F913F9169
:100750002F910F900FBE0F901F901895789484B52D
:10076000826084BD84B5816084BD85B5826085BDAD
:1007700085B5816085BD80916E00816080936E003B
:10078000109281008091810082608093810080912D
:1007900081008160809381008091800081608093DE
:1007A00080008091B10084608093B1008091B0009E
:1007B00081608093B00080917A00846080937A0099
:1007C00080917A00826080937A0080917A008160C3
:1007D00080937A0080917A00806880937A001092EA
:1007E000C10060E082E00E94E50061E087E00E94D5
:1007F000E50061E086E00E94E50061E085E00E949E
:10080000E5002CE9622E20E0722E38E8C32E30E09D
:10081000D32E45E0A42EB12C54E0852E912CC3E0BC
:10082000D0E002E010E090E0E92E90E0F92EE0EB5D
:10083000F0E08491F3013490F60124902220A1F09D
:1008400081110E948C00E22DF0E0EE0FFF1FE859AD
:10085000FF4FA591B4918C91382231E020E009F44A
:1008600030E0832F922F02C080E090E090939A01B5
:10087000809399018130910509F049C02091970139
:1008800030919801232B09F042C02FB7F894409182
:10089000A0015091A1016091A2017091A3012FBF0D
:1008A00020909301309094014090950150909601D2
:1008B0004219530964097509493C510561057105DF
:1008C00030F120919101309192012115310571F59E
:1008D00090939201809391014FEF50E060E070E0BF
:1008E0008AEA90E00E9414022FB7F8948091A00148
:1008F0009091A101A091A201B091A3012FBF80937B
:10090000930190939401A0939501B09396018091E7
:10091000990190919A019093980180939701E11425
:10092000F10409F484CF0E94000079CF2130310511
:1009300059F4109392010093910140E050E060E07F
:1009400070E08FEF90E0CECF2230310549F4D093A4
:100950009201C09391014FEF50E060E070E00BC056
:100960002330310559F4909292018092910140E038
:1009700050E06FEF70E080E090E0B4CF24303105BC
:1009800049F4B0929201A09291014FEF50E06FEFC5
:1009900070E0D7CF10929201109291011092010154
:1009A00010920001A1CFE3E8F1E01382128288EEF9
:1009B00093E0A0E0B0E084839583A683B78386E0CC
:1009C00091E0918380830895EE0FFF1F0590F491CD
:1009D000E02D099481E090E0F8940C94EF04F894F1
:0209E000FFCF47
:1009E2000100000000000302EF01BA01AB01B201F5
:0409F200AF01AC01A4
:00000001FF
