:100000000C9462000C948A000C948A000C940B06E9
:100010000C940B060C940B060C948A000C948A002A
:100020000C948A000C948A000C948A000C948A0028
:100030000C948A000C948A000C948A000C948A0018
:100040000C9469050C948A000C94D9050C94B305A2
:100050000C948A000C948A000C948A000C948A00F8
:100060000C9415060C948A00000000002400270060
:100070002A0000000000250028002B0000000008D6
:10008000000201000003040700000000000000005F
:1000900000000000230026002900040404040404D6
:1000A0000404020202020202030303030303010227
:1000B00004081020408001020408102001020408F6
:1000C0001020430711241FBECFEFD8E0DEBFCDBF05
:1000D00011E0A0E0B1E0EAE9F6E102C005900D927E
:1000E000A235B107D9F722E0A2E5B1E001C01D9227
:1000F000AF38B207E1F710E0C2E6D0E004C02197C4
:10010000FE010E94400BC136D107C9F70E949C072F
:100110000C944B0B0C9400008F929F92AF92BF9265
:10012000CF92DF92EF92FF92CF93DF93A091840260
:10013000882311F03A2F01C030E08091850290E0D1
:10014000880F991F80579F4FC0908A02D0908B02D2
:10015000E0908C02F0908D0240E050E0BA01FC018A
:10016000C591D49128812A2323130FC04A015B0132
:100170002FEF821A920AA20AB20A4C155D056E058B
:100180007F0538F4B501A401EACF342F252FCB0128
:1001900004C030E020E080E090E0632F722FDF9118
:1001A000CF91FF90EF90DF90CF90BF90AF909F9056
:1001B0008F90089590E0FC01E458FF4F3491FC01CA
:1001C000E255FF4F2491FC01E656FF4FE491EE23E8
:1001D00009F43BC0332339F1333091F038F4313036
:1001E000A9F0323001F584B58F7D12C0373091F01F
:1001F0003830A1F03430B9F4809180008F7D03C095
:10020000809180008F77809380000DC084B58F77B8
:1002100084BD09C08091B0008F7703C08091B00089
:100220008F7D8093B000F0E0EE0FFF1FEE58FF4F80
:10023000A591B4918FB7F894EC91611103C020950A
:100240002E2301C02E2B2C938FBF0895CF93DF93C5
:1002500090E0FC01E255FF4F2491FC01E656FF4F70
:100260008491882361F190E0880F991FFC01E8597F
:10027000FF4FC591D491FC01EE58FF4FA591B49169
:10028000611109C09FB7F8948881209582238883E3
:10029000EC912E230BC0623061F49FB7F894388143
:1002A000822F809583238883EC912E2B2C939FBFE4
:1002B00006C08FB7F894E8812E2B28838FBFDF917B
:1002C000CF9108953FB7F8948091CC019091CD01E2
:1002D000A091CE01B091CF0126B5A89B05C02F3FBC
:1002E00019F00196A11DB11D3FBFBA2FA92F982F5C
:1002F0008827820F911DA11DB11DBC01CD0142E0D7
:10030000660F771F881F991F4A95D1F708958F921E
:100310009F92AF92BF92CF92DF92EF92FF926B01CA
:100320007C010E9462014B015C01C114D104E10413
:10033000F104F1F00E946201DC01CB0188199909F6
:10034000AA09BB09883E9340A105B10570F321E0DD
:10035000C21AD108E108F10888EE880E83E0981EE1
:10036000A11CB11CC114D104E104F10419F7DDCFC3
:10037000FF90EF90DF90CF90BF90AF909F908F90C5
:100380000895CF92DF92EF92FF920F931F93CF9336
:10039000DF93CDB7DEB7C054D1400FB6F894DEBFBF
:1003A0000FBECDBF2FB7F8948091D0019091D101AD
:1003B000A091D201B091D3012FBF409186025091FC
:1003C000870260918802709189028C019D01041B53
:1003D000150B260B370BB901A801403D57406105AD
:1003E000710518F480918E02BCC0809386029093B0
:1003F0008702A0938802B093890210928102109222
:10040000800210927F0210927E0210927D0261E0C3
:10041000809182020E94DA006AEF70E080E090E052
:100420000E94870161E0809182020E94260160E0C3
:10043000809182020E94DA0064E170E080E090E046
:100440000E948701F89461E0809182020E94DA00A4
:100450008BE990E00197F1F762E0809182020E94BF
:10046000260183E290E00197F1F780E00E948C0082
:10047000672B682B692B21F410928E0278943EC072
:1004800081E00E948C00672B682B692BA9F38E01F9
:100490000F5F1F4F6E012FEBC21A2EEFD20A7801A9
:1004A00080E00E948C00F7016083718382839383D4
:1004B00081E00E948C00F7016483758386839783B3
:1004C000F8E0EF0EF11CEC14FD0451F7789420E0F5
:1004D00030E0F8014081518162817381C480D58010
:1004E000E680F780411551056105710529F0C114B9
:1004F000D104E104F10421F410928E0280E031C0B5
:10050000F90183E0F595E7958A95E1F7E358FD4F0A
:100510008081880F4C155D056E057F0508F48160AC
:1005200080832F5F3F4F085F1F4F2832310589F6C8
:100530002091810230E040917D0280917E0290E026
:10054000840F911D40917F02840F911D4091800284
:10055000840F911D99272817390771F681E0809340
:100560008E02C05CDE4F0FB6F894DEBF0FBECDBF6B
:10057000DF91CF911F910F91FF90EF90DF90CF907F
:100580000895CF92DF92EF92FF920F931F93CF9334
:10059000DF936C017A018B01C0E0D0E0CE15DF055E
:1005A00089F0D8016D918D01D601ED91FC910190FA
:1005B000F081E02DC6010995892B11F47E0102C05E
:1005C0002196ECCFC701DF91CF911F910F91FF9042
:1005D000EF90DF90CF900895FC01538D448D252F2F
:1005E00030E0842F90E0821B930B541710F0CF96CD
:1005F000089501970895FC01918D828D981761F0FF
:10060000828DDF01A80FB11D5D968C91928D9F5F49
:100610009F73928F90E008958FEF9FEF0895FC01F4
:10062000918D828D981731F0828DE80FF11D858DA7
:1006300090E008958FEF9FEF0895FC01918D228D3A
:10064000892F90E0805C9F4F821B91098F739927BF
:10065000089584ED91E00E941D0321E0892B09F4A7
:1006600020E0822F0895FC01848DDF01A80FB11DC9
:10067000A35ABF4F2C91848D90E001968F739927D8
:10068000848FA689B7892C93A089B1898C918064C5
:100690008C93938D848D981306C00288F389E02D86
:1006A00080818F7D80830895EF92FF920F931F9337
:1006B000CF93DF93EC0181E0888F9B8D8C8D981315
:1006C00005C0E889F989808185FD24C0F62E0B8D4F
:1006D00010E00F5F1F4F0F731127E02E8C8DE81273
:1006E0000CC00FB607FCFACFE889F989808185FF35
:1006F000F5CFCE010E943303F1CF8B8DFE01E80FC1
:10070000F11DE35AFF4FF0820B8FEA89FB8980814C
:10071000806207C0EE89FF896083E889F98980815A
:100720008064808381E090E0DF91CF911F910F91F1
:10073000FF90EF900895CF93DF93EC01888D88238D
:10074000C9F0EA89FB89808185FD05C0A889B9893E
:100750008C9186FD0FC00FB607FCF5CF808185FF19
:10076000F2CFA889B9898C9185FFEDCFCE010E9487
:100770003303E7CFDF91CF91089580E090E0892B9C
:1007800029F00E94290381110C9400000895089516
:100790008FEF9FEF08958FEF9FEF08958091C00135
:1007A00090E09195819591090895089580E090E0F9
:1007B000089585ED8093BC008091BC0084FDFCCF42
:1007C00010929A01089540917401262F30E0240F71
:1007D000311D21323105DCF420919A012430C9F415
:1007E000FC0180E090E0861758F43091740121916B
:1007F000DC01AE5ABE4FA30FB11D2C930196F3CF6F
:1008000080917401680F6093740180E0089581E025
:10081000089582E00895CF93DF9300D0CDB7DEB77F
:10082000CB01642F49835A830E94E3034981842FBB
:100830005A81952F0F900F90DF91CF910895CF930C
:10084000DF931F92CDB7DEB7698361E0CE010196D9
:100850000E94E30381E090E00F90DF91CF91089533
:10086000009769F0FC0101900020E9F73197AF0192
:10087000481B590BBC0184ED91E00C94C10280E04F
:1008800090E008958F929F92AF92BF920F931F9323
:10089000CF93DF93CDB7DEB7A1970FB6F894DEBF45
:1008A0000FBECDBF19A2423008F44AE08E010F5DA1
:1008B0001F4F842E912CA12CB12CA50194010E94D4
:1008C0001E0BE62FB901CA0101501109EA3014F4D8
:1008D000E05D01C0E95CD801EC93232B242B252B90
:1008E00061F7C8010E943004A1960FB6F894DEBFEC
:1008F0000FBECDBFDF91CF911F910F91BF90AF90F1
:100900009F908F9008954F925F926F927F928F92F7
:100910009F92AF92BF92CF92DF92EF92FF926B01C4
:100920007C01B42E9B01AC010E94190B882319F0A5
:1009300084E291E027C026013701E89477F82FEF91
:100940003FEF4FE75FE7C301B2010E94190B81112E
:100950000DC02FEF3FEF4FE75FE7C301B2010E94E9
:100960004F0918161CF488E291E00CC02FEF3FEFFE
:100970004FE75FE4C701B6010E94A70A181684F486
:100980008CE291E0FF90EF90DF90CF90BF90AF901E
:100990009F908F907F906F905F904F900C94300459
:1009A0002FEF3FEF4FE75FECC701B6010E944F0901
:1009B00087FDE6CF20E030E0A901C701B6010E9423
:1009C0004F0987FF11C0E091D401F091D50101904A
:1009D000F081E02D6DE284ED91E009954C01F7FA8C
:1009E000F094F7F8F09402C0812C912CA12C60E0D7
:1009F00070E080E09FE3AB1441F020E030E040E2A3
:100A000051E40E945409A394F6CF9B01AC01C701A5
:100A1000B6010E94E3082B013C010E94C6096B014C
:100A20007C010E94F5099B01AC01C301B2010E9447
:100A3000E2082B013C014AE0C701B6010E944204D2
:100A40007C01E80CF91CBB2069F0E091D401F09125
:100A5000D5010190F081E02D6EE284ED91E00995E1
:100A6000E80EF91EDB2CDD2021F120E030E040E231
:100A700051E4C301B2010E94AC0A2B013C010E9467
:100A8000C6094B01A12CB12C4AE0C501B4010E945A
:100A90004204E80EF91EC501B4010E94F5099B014C
:100AA000AC01C301B2010E94E2082B013C01DA94BF
:100AB000DACFC701FF90EF90DF90CF90BF90AF905B
:100AC0009F908F907F906F905F904F9008950E94BD
:100AD000460B1F920F920FB60F9211242F933F9344
:100AE0008F939F93AF93BF938091D0019091D10149
:100AF000A091D201B091D3013091CB0123E0230F1B
:100B00002D3720F40196A11DB11D05C026E8230F45
:100B10000296A11DB11D2093CB018093D00190932B
:100B2000D101A093D201B093D3018091CC019091D7
:100B3000CD01A091CE01B091CF010196A11DB11DB3
:100B40008093CC019093CD01A093CE01B093CF01BF
:100B5000BF91AF919F918F913F912F910F900FBEB9
:100B60000F901F9018951F920F920FB60F9211249D
:100B70002F933F934F935F936F937F938F939F93A5
:100B8000AF93BF93EF93FF9384ED91E00E94330303
:100B9000FF91EF91BF91AF919F918F917F916F9155
:100BA0005F914F913F912F910F900FBE0F901F902B
:100BB00018951F920F920FB60F9211242F938F93B7
:100BC0009F93EF93FF93E091E401F091E501808121
:100BD000E091EA01F091EB0182FD12C090818091D9
:100BE000ED018F5F8F732091EE01821751F0E0913C
:100BF000ED01F0E0EC52FE4F958F8093ED0101C0C6
:100C00008081FF91EF919F918F912F910F900FBE57
:100C10000F901F9018951F920F920FB60F921124EC
:100C20000F900FBE0F901F9018951F920F920FB646
:100C30000F9211242F933F934F935F936F937F9362
:100C40008F939F93AF93BF93EF93FF938091B900DE
:100C5000887F803609F49CC068F5883209F45BC04F
:100C600090F4803109F454C038F4882309F4F6C0B4
:100C7000883009F44DC0F6C0883109F44CC0803288
:100C800009F45DC0EFC0803409F468C048F48033D3
:100C900009F455C0883309F0E5C080939901D8C0A4
:100CA000803509F44FC0883509F45DC0883409F0F7
:100CB000D9C0D6C0883909F4C7C0A8F4883709F468
:100CC00067C038F4883609F463C0803709F460C01F
:100CD000C9C0883809F4B8C0803909F45FC08038C9
:100CE00009F0C0C05BC0803B09F486C038F4803A8C
:100CF00009F466C0883A09F47FC0B4C0803C09F4A6
:100D0000A7C0883C09F4A4C0883B09F48AC0AAC0E3
:100D10008091BF0110C09091BE018091BD019817D4
:100D200070F5E091BE0181E08E0F8093BE01F0E08E
:100D3000E356FE4F80818093BB0085EC86C0809394
:100D400099018EC0E091BE0181E08E0F8093BE01BB
:100D50008091BB00F0E0E356FE4F80839091BE018E
:100D60008091BD016EC0E091BE0181E08E0F809345
:100D7000BE018091BB00F0E0E356FE4F808380917E
:100D80009C0181116DC081E080939B0184EA61C068
:100D900083E080939A0110929801CFCF80919801BF
:100DA000803208F051C0E091980181E08E0F80936D
:100DB00098018091BB00F0E0E858FE4F8083BDCFE2
:100DC00085EC8093BC0010929A018091980180324A
:100DD00030F4E0919801F0E0E858FE4F1082609105
:100DE000980170E0E0917601F091770188E791E059
:100DF00009951092980136C084E080939A01109270
:100E0000750110927401E0917201F09173010995DE
:100E100080917401811105C081E08093740110926A
:100E20005201E091750181E08E0F80937501F0E031
:100E3000EE5AFE4F80818093BB00909175018091A6
:100E40007401981708F479CF85E88093BC000AC034
:100E500085EC8093BC0010929A0104C01092990115
:100E60000E94D903FF91EF91BF91AF919F918F9114
:100E70007F916F915F914F913F912F910F900FBE96
:100E80000F901F901895E4EDF1E01382128288EE26
:100E900093E0A0E0B0E084839583A683B78324E049
:100EA00031E03183208325EC30E03587248724EC42
:100EB00030E03787268720EC30E0318B208B21EC27
:100EC00030E0338B228B22EC30E0358B248B26EC08
:100ED00030E0378B268B118E128E138E148EE1E745
:100EE000F2E01382128284839583A683B78386E11E
:100EF00091E091838083ADE7B2E082E015968C9318
:100F0000159786E116968C931697E0EBF0E0E49146
:100F10001796EC931797ECE9F0E0E4911896EC93B0
:100F2000189740E85EE360E070E01D964D935D9396
:100F30006D937C9350970895789484B5826084BDB6
:100F400084B5816084BD85B5826085BD85B58160CD
:100F500085BD80916E00816080936E00109281004B
:100F60008091810082608093810080918100816006
:100F700080938100809180008160809380008091C7
:100F8000B10084608093B1008091B0008160809353
:100F9000B00080917A00846080937A0080917A001A
:100FA000826080937A0080917A00816080937A00D9
:100FB00080917A00806880937A001092C100E0915D
:100FC000E401F091E50182E08083E091E001F0919D
:100FD000E1011082E091E201F091E30180E1808380
:100FE0001092EC01E091E801F091E90186E0808344
:100FF000E091E601F091E701808180618083E091DA
:10100000E601F091E701808188608083E091E6014C
:10101000F091E701808180688083E091E601F091A2
:10102000E70180818F7D808362E0809182020E944F
:10103000260180E398EFAFEFBFEF80938602909395
:101040008702A0938802B09389020E94C10188237D
:10105000A1F1809183028B3041F178F1855182308A
:1010600060F560917D0270E080E090E00E94F509FB
:1010700020E030E040E853E40E94AC0A6B017C01C0
:1010800080917E02682F70E080E090E00E94F70976
:101090009B01AC01C701B6010E94E3082DEC3CECBA
:1010A0004CEC5DE30E94AC0A0CC060917D0270E0E4
:1010B00080E090E00E94F50904C060E070E080EC00
:1010C0009FE76093C7017093C8018093C901909313
:1010D000CA010E94C1018823D1F1809183028B3023
:1010E00029F0A8F18551823048F031C060917F022B
:1010F00070E080E090E00E94F5092DC0C0917F0271
:101100006C2F6F7770E080E090E00E94F70920E09C
:1011100030E040E853E40E94AC0A6B017C0180910E
:101120008002682F70E080E090E00E94F7099B0148
:10113000AC01C701B6010E94E3082DEC3CEC4CEC7D
:101140005DE30E94AC0AC7FF06C0905804C060E08F
:1011500070E080EC9FE76093C3017093C4018093BB
:10116000C5019093C60180E391E00E943004609134
:10117000C7017091C8018091C9019091CA0142E0F4
:101180000E9483048BE391E00E9430046091C301CC
:101190007091C4018091C5019091C60142E00E9406
:1011A000830486E491E00E9430048FE491E00E9481
:1011B000300460ED77E080E090E00E9487010E94BB
:1011C000BD0343CF5058BB27AA270E94FA080C94AE
:1011D0006D0A0E945F0A38F00E94660A20F039F416
:1011E0009F3F19F426F40C945C0A0EF4E095E7FB9B
:1011F0000C94560AE92F0E947E0A58F3BA17620728
:1012000073078407950720F079F4A6F50C94A00ADB
:101210000EF4E0950B2EBA2FA02D0B01B901900111
:101220000C01CA01A0011124FF27591B99F0593F55
:1012300050F4503E68F11A16F040A22F232F342F9D
:101240004427585FF3CF469537952795A795F040EB
:101250005395C9F77EF41F16BA0B620B730B840B00
:10126000BAF09150A1F0FF0FBB1F661F771F881FB8
:10127000C2F70EC0BA0F621F731F841F48F4879510
:1012800077956795B795F7959E3F08F0B0CF939502
:10129000880F08F09927EE0F9795879508950E947B
:1012A000320A08F481E008950E9468090C946D0ADE
:1012B0000E94660A58F00E945F0A40F029F45F3FDE
:1012C00029F00C94560A51110C94A10A0C945C0A52
:1012D0000E947E0A68F39923B1F3552391F3951B7D
:1012E000550BBB27AA2762177307840738F09F5F47
:1012F0005F4F220F331F441FAA1FA9F335D00E2EB4
:101300003AF0E0E832D091505040E695001CCAF720
:101310002BD0FE2F29D0660F771F881FBB1F2617E3
:1013200037074807AB07B0E809F0BB0B802DBF01BA
:10133000FF2793585F4F3AF09E3F510578F00C9489
:10134000560A0C94A10A5F3FE4F3983ED4F38695C5
:1013500077956795B795F7959F5FC9F7880F911DAA
:101360009695879597F90895E1E0660F771F881F96
:10137000BB1F621773078407BA0720F0621B730B49
:10138000840BBA0BEE1F88F7E09508950E94860A39
:1013900088F09F5798F0B92F9927B751B0F0E1F036
:1013A000660F771F881F991F1AF0BA95C9F714C0E6
:1013B000B13091F00E94A00AB1E008950C94A00A07
:1013C000672F782F8827B85F39F0B93FCCF386951F
:1013D00077956795B395D9F73EF49095809570957C
:1013E00061957F4F8F4F9F4F0895E89409C097FBF9
:1013F0003EF490958095709561957F4F8F4F9F4FEC
:101400009923A9F0F92F96E9BB279395F69587952F
:1014100077956795B795F111F8CFFAF4BB0F11F4F2
:1014200060FF1BC06F5F7F4F8F4F9F4F16C0882399
:1014300011F096E911C0772321F09EE8872F762FCF
:1014400005C0662371F096E8862F70E060E02AF010
:101450009A95660F771F881FDAF7880F96958795FC
:1014600097F90895990F0008550FAA0BE0E8FEEFD1
:1014700016161706E807F907C0F012161306E40758
:10148000F50798F0621B730B840B950B39F40A2651
:1014900061F0232B242B252B21F408950A2609F42F
:1014A000A140A6958FEF811D811D089597F99F6733
:1014B00080E870E060E008959FEF80EC08950024DC
:1014C0000A941616170618060906089500240A94A9
:1014D00012161306140605060895092E0394000C2F
:1014E00011F4882352F0BB0F40F4BF2B11F460FFBE
:1014F00004C06F5F7F4F8F4F9F4F089557FD9058E7
:10150000440F551F59F05F3F71F04795880F97FBC7
:10151000991F61F09F3F79F0879508951216130681
:101520001406551FF2CF4695F1DF08C016161706B0
:101530001806991FF1CF86957105610508940895E5
:10154000E894BB2766277727CB0197F908950E9477
:10155000320A08F48FEF08950E94BF0A0C946D0AB6
:101560000E945F0A38F00E94660A20F0952311F06D
:101570000C94560A0C945C0A11240C94A10A0E9443
:101580007E0A70F3959FC1F3950F50E0551F629F3F
:10159000F001729FBB27F00DB11D639FAA27F00DCC
:1015A000B11DAA1F649F6627B00DA11D661F829FF3
:1015B0002227B00DA11D621F739FB00DA11D621FD8
:1015C000839FA00D611D221F749F3327A00D611DF5
:1015D000231F849F600D211D822F762F6A2F1124D7
:1015E0009F5750409AF0F1F088234AF0EE0FFF1F0A
:1015F000BB1F661F771F881F91505040A9F79E3F61
:10160000510580F00C94560A0C94A10A5F3FE4F354
:10161000983ED4F3869577956795B795F795E795B6
:101620009F5FC1F7FE2B880F911D9695879597F9BF
:1016300008950E94320A880B990B0895A1E21A2E90
:10164000AA1BBB1BFD010DC0AA1FBB1FEE1FFF1F66
:10165000A217B307E407F50720F0A21BB30BE40BB6
:10166000F50B661F771F881F991F1A9469F76095FD
:101670007095809590959B01AC01BD01CF010895B7
:10168000EE0FFF1F0590F491E02D099481E090E0AA
:0A169000F8940C944B0BF894FFCF74
:10169A00000000005403C102EC029B031D03FB027D
:1016AA000F03000000001F040B04D603C703CE0378
:1016BA00CB03C8036E616E00696E66006F766600C2
:1016CA0048756D69646974793A200020252C205484
:1016DA00656D703A20002043656C73697573000D5F
:0216EA000A00F4
:00000001FF
