:100000000C945D000C9485000C9485000C94960370
:100010000C9496030C9496030C9485000C94850024
:100020000C9485000C9485000C9485000C9485003C
:100030000C9485000C9485000C9485000C9485002C
:100040000C94F4020C9485000C9464030C943E030D
:100050000C9485000C9485000C9485000C9485000C
:100060000C94A0030C9485000000000024002700DD
:100070002A0000000000250028002B0004040404CE
:100080000404040402020202020203030303030342
:10009000010204081020408001020408102001021F
:1000A00004081020000000080002010000030407FB
:1000B0000000000000000000CE0411241FBECFEF9E
:1000C000D8E0DEBFCDBF11E0A0E0B1E0E4E3FCE0AA
:1000D00002C005900D92A832B107D9F722E0A8E23C
:1000E000B1E001C01D92AD34B207E1F710E0CDE5FB
:1000F000D0E004C02197FE010E940D06CC35D10747
:10010000C9F70E9407050C9418060C94000090E0B3
:10011000FC01EC55FF4F3491FC01E057FF4F249157
:10012000FC01E458FF4FE491EE2309F43BC0332374
:1001300039F1333091F038F43130A9F0323001F533
:1001400084B58F7D12C0373091F03830A1F0343053
:10015000B9F4809180008F7D03C0809180008F77FB
:10016000809380000DC084B58F7784BD09C08091D5
:10017000B0008F7703C08091B0008F7D8093B00076
:10018000F0E0EE0FFF1FEE58FF4FA591B4918FB72F
:10019000F894EC91611103C020952E2301C02E2B01
:1001A0002C938FBF08953FB7F8948091A001909150
:1001B000A101A091A201B091A30126B5A89B05C001
:1001C0002F3F19F00196A11DB11D3FBFBA2FA92FD6
:1001D000982F8827820F911DA11DB11DBC01CD0153
:1001E00042E0660F771F881F991F4A95D1F708953F
:1001F0008F929F92AF92BF92CF92DF92EF92FF9237
:100200006B017C010E94D3004B015C01C114D1043D
:10021000E104F104F1F00E94D300DC01CB01881964
:100220009909AA09BB09883E9340A105B10570F35D
:1002300021E0C21AD108E108F10888EE880E83E0B7
:10024000981EA11CB11CC114D104E104F10419F7DA
:10025000DDCFFF90EF90DF90CF90BF90AF909F9059
:100260008F900895CF92DF92EF92FF920F931F939A
:10027000CF93DF936C017A018B01C0E0D0E0CE1503
:10028000DF0589F0D8016D918D01D601ED91FC91CA
:100290000190F081E02DC6010995892B11F47E01B2
:1002A00002C02196ECCFC701DF91CF911F910F9132
:1002B000FF90EF90DF90CF900895FC01538D448D17
:1002C000252F30E0842F90E0821B930B541710F001
:1002D000CF96089501970895FC01918D828D98170E
:1002E00061F0828DDF01A80FB11D5D968C91928D1A
:1002F0009F5F9F73928F90E008958FEF9FEF089517
:10030000FC01918D828D981731F0828DE80FF11DDF
:10031000858D90E008958FEF9FEF0895FC01918DFA
:10032000228D892F90E0805C9F4F821B91098F73F3
:100330009927089584EA91E00E948E0121E0892B9B
:1003400009F420E0822F0895FC01848DDF01A80FBD
:10035000B11DA35ABF4F2C91848D90E001968F73ED
:100360009927848FA689B7892C93A089B1898C910C
:1003700080648C93938D848D981306C00288F389D2
:10038000E02D80818F7D80830895EF92FF920F93FF
:100390001F93CF93DF93EC0181E0888F9B8D8C8D31
:1003A000981305C0E889F989808185FD24C0F62E5F
:1003B0000B8D10E00F5F1F4F0F731127E02E8C8DF8
:1003C000E8120CC00FB607FCFACFE889F9898081E2
:1003D00085FFF5CFCE010E94A401F1CF8B8DFE01E8
:1003E000E80FF11DE35AFF4FF0820B8FEA89FB897A
:1003F0008081806207C0EE89FF896083E889F9897E
:1004000080818064808381E090E0DF91CF911F91B3
:100410000F91FF90EF900895CF93DF93EC01888DBB
:100420008823C9F0EA89FB89808185FD05C0A889F8
:10043000B9898C9186FD0FC00FB607FCF5CF80817E
:1004400085FFF2CFA889B9898C9185FFEDCFCE01C8
:100450000E94A401E7CFDF91CF91089580E090E062
:10046000892B29F00E949A0181110C9400000895B3
:1004700008958FEF9FEF08958FEF9FEF089580917C
:10048000960190E09195819591090895089580E0F5
:1004900090E0089585ED8093BC008091BC0084FDC0
:1004A000FCCF10927001089540914A01262F30E050
:1004B000240F311D21323105DCF4209170012430EC
:1004C000C9F4FC0180E090E0861758F430914A01AD
:1004D0002191DC01A85DBE4FA30FB11D2C930196A5
:1004E000F3CF80914A01680F60934A0180E008953C
:1004F00081E0089582E00895CF93DF9300D0CDB7D7
:10050000DEB7CB01642F49835A830E94540249818C
:10051000842F5A81952F0F900F90DF91CF910895DE
:10052000CF93DF931F92CDB7DEB7698361E0CE0131
:1005300001960E94540281E090E00F90DF91CF91EC
:1005400008958F929F92AF92BF920F931F93CF9374
:10055000DF93CDB7DEB7A1970FB6F894DEBF0FBE1D
:10056000CDBF19A2423008F44AE08E010F5D1F4F43
:10057000842E912CA12CB12CA50194010E94EB0595
:10058000E62FB901CA0101501109EA3014F4E05D07
:1005900001C0E95CD801EC93232B242B252B61F7B8
:1005A0000115110571F0F80101900020E9F731976C
:1005B000AF01401B510BB80184EA91E00E94320167
:1005C00002C080E090E0A1960FB6F894DEBF0FBEA7
:1005D000CDBFDF91CF911F910F91BF90AF909F90B2
:1005E0008F9008950E9413061F920F920FB60F92DC
:1005F00011242F933F938F939F93AF93BF93809139
:100600009C0190919D01A0919E01B0919F0130911C
:100610009B0123E0230F2D3720F40196A11DB11D6E
:1006200005C026E8230F0296A11DB11D20939B0152
:1006300080939C0190939D01A0939E01B0939F0194
:100640008091A0019091A101A091A201B091A3017C
:100650000196A11DB11D8093A0019093A101A093CB
:10066000A201B093A301BF91AF919F918F913F9150
:100670002F910F900FBE0F901F9018951F920F9201
:100680000FB60F9211242F933F934F935F936F9365
:100690007F938F939F93AF93BF93EF93FF9384EADE
:1006A00091E00E94A401FF91EF91BF91AF919F91C2
:1006B0008F917F916F915F914F913F912F910F900B
:1006C0000FBE0F901F9018951F920F920FB60F92AA
:1006D00011242F938F939F93EF93FF93E091B40195
:1006E000F091B5018081E091BA01F091BB0182FDEA
:1006F00012C090818091BD018F5F8F732091BE01E8
:10070000821751F0E091BD01F0E0EC55FE4F958F5E
:100710008093BD0101C08081FF91EF919F918F91E6
:100720002F910F900FBE0F901F9018951F920F9250
:100730000FB60F9211240F900FBE0F901F901895B7
:100740001F920F920FB60F9211242F933F934F9346
:100750005F936F937F938F939F93AF93BF93EF9329
:10076000FF938091B900887F803609F49CC068F5BA
:10077000883209F45BC090F4803109F454C038F435
:10078000882309F4F6C0883009F44DC0F6C08831DA
:1007900009F44CC0803209F45DC0EFC0803409F424
:1007A00068C048F4803309F455C0883309F0E5C0C7
:1007B00080936F01D8C0803509F44FC0883509F4A3
:1007C0005DC0883409F0D9C0D6C0883909F4C7C0E3
:1007D000A8F4883709F467C038F4883609F463C090
:1007E000803709F460C0C9C0883809F4B8C08039BE
:1007F00009F45FC0803809F0C0C05BC0803B09F4D9
:1008000086C038F4803A09F466C0883A09F47FC09B
:10081000B4C0803C09F4A7C0883C09F4A4C0883B5C
:1008200009F48AC0AAC08091950110C090919401EA
:1008300080919301981770F5E091940181E08E0FFB
:1008400080939401F0E0ED58FE4F80818093BB00CF
:1008500085EC86C080936F018EC0E091940181E0A9
:100860008E0F809394018091BB00F0E0ED58FE4F15
:10087000808390919401809193016EC0E0919401E6
:1008800081E08E0F809394018091BB00F0E0ED58E1
:10089000FE4F80838091720181116DC081E0809351
:1008A000710184EA61C083E08093700110926E014F
:1008B000CFCF80916E01803208F051C0E0916E017F
:1008C00081E08E0F80936E018091BB00F0E0E25BCF
:1008D000FE4F8083BDCF85EC8093BC0010927001E9
:1008E00080916E01803230F4E0916E01F0E0E25BC5
:1008F000FE4F108260916E0170E0E0914C01F0912A
:100900004D018EE491E0099510926E0136C084E0AD
:100910008093700110924B0110924A01E0914801BE
:10092000F0914901099580914A01811105C081E04A
:1009300080934A0110922801E0914B0181E08E0FD3
:1009400080934B01F0E0E85DFE4F80818093BB0017
:1009500090914B0180914A01981708F479CF85E86E
:100960008093BC000AC085EC8093BC00109270019B
:1009700004C010926F010E944A02FF91EF91BF9153
:10098000AF919F918F917F916F915F914F913F9127
:100990002F910F900FBE0F901F901895E4EAF1E091
:1009A0001382128288EE93E0A0E0B0E08483958306
:1009B000A683B78324E031E03183208325EC30E047
:1009C0003587248724EC30E03787268720EC30E019
:1009D000318B208B21EC30E0338B228B22EC30E00A
:1009E000358B248B26EC30E0378B268B118E128EC4
:1009F000138E148EE1E4F2E01382128284839583D5
:100A0000A683B78386E191E09183808308957894EB
:100A100084B5826084BD84B5816084BD85B5826003
:100A200085BD85B5816085BD80916E0081608093B4
:100A30006E0010928100809181008260809381001D
:100A4000809181008160809381008091800081602D
:100A5000809380008091B10084608093B100809188
:100A6000B00081608093B00080917A0084608093B0
:100A70007A0080917A00826080937A0080917A0077
:100A8000816080937A0080917A00806880937A00F8
:100A90001092C100EDE9F0E02491E9E8F0E08491E2
:100AA000882399F090E0880F991FFC01E859FF4FC7
:100AB000A591B491FC01EE58FF4F859194918FB7A9
:100AC000F894EC91E22BEC938FBFE091B401F0919C
:100AD000B50182E08083E091B001F091B101108214
:100AE000E091B201F091B3018FEC80831092BC01D0
:100AF000E091B801F091B90186E08083E091B60100
:100B0000F091B701808180618083E091B601F0911E
:100B1000B701808188608083E091B601F091B701D0
:100B2000808180688083E091B601F091B701808177
:100B30008F7D808310E410937C0080917A00806424
:100B400080937A0080917A0086FDFCCFC091780076
:100B500080917900D0E0D82BD0939A01C09399016D
:100B600061E08DE00E9487006E010D2E000CEE0802
:100B7000FF08C701B6010E94F80060E08DE00E9406
:100B80008700C701B6010E94F800D7FF14C0E091AA
:100B9000A401F091A5010190F081E02D6DE284EABD
:100BA00091E0099566277727CB016C197D098E099D
:100BB0009F094AE003C04AE0C701B6010E94A102B2
:100BC00042E050E064E271E084EA91E00E94320188
:100BD0000E942E02B0CFA1E21A2EAA1BBB1BFD0160
:100BE0000DC0AA1FBB1FEE1FFF1FA217B307E4070C
:100BF000F50720F0A21BB30BE40BF50B661F771F64
:100C0000881F991F1A9469F7609570958095909543
:100C10009B01AC01BD01CF010895EE0FFF1F0590B0
:100C2000F491E02D099481E090E0F8940C9418067A
:040C3000F894FFCF66
:100C340000000000C50132015D010C028E016C014F
:100C440080010000000090027C02470238023F024B
:080C54003C0239020D0A000008
:00000001FF
